:060000000A128A110C280F
:10000800FE00030EF0000A08F1000A128A154728BC
:100018000A128A110F288313EC30FD001630FE00F7
:100028003530FF00D13084000A168A11E0250A1203
:100038008A117030FD001530FE002730FF006B304C
:1000480084000A168A11E0250A128A11A030840059
:10005800D1300A168A1139250A128A114D308400C6
:100068006B300A168A1139250A128A11FA01FB0126
:1000780083010A128A1140280A128A15E7200A12F7
:100088008A1183160313690883120313C5008316A4
:1000980003136A0883120313C600831603136B083D
:1000A80083120313C7000A30CB003F30CC00C401D1
:1000B800C90133308400D130AF000408B0000E30DD
:1000C800B1002F08840083130008B200AF0A30087B
:1000D800840032088000B00AB10B6528A0014530C1
:1000E8000A128A157C220A128A114C30F5008530D2
:1000F800F60000300A168A11D1270A128A118312D3
:10010800031312110A30F6000030F7000A168A119C
:10011800B7250A128A117308F9007208F8000A1242
:100128008A1597210A128A11760883120313CA00C6
:1001380000300A168A11F6260A128A11831203134E
:10014800C8003F3048060319AA28AB28B228480837
:10015800C3000130FF007F08C407B6284308CC005D
:100168003F30C300C101C201013083120313C1072C
:100178000318C20A0030C2074208803AFF008B30D9
:100188007F02031DC928B8304102031CCC28CD28A2
:10019800B8286430831203134A02031CD428D528D4
:1001A800D7286330CA003F304806031DDC28DD2805
:1001B800E82A3E304C06031DE228E328F928C90145
:1001C8003308F2003408F30045300A168A11AD26C8
:1001D8000A128A11831203134A08A00045300A1232
:1001E8008A157C220A128A117F2A3D304C06031D8B
:1001F800FE28FF2826290630490203180429052964
:1002080026290130FF007F08C9074908AF002F07DA
:10021800333E840083130008F200840A0008840334
:10022800F30045300A168A11AD260A128A11831284
:1002380003134A08A00045300A128A157C220A12C4
:100248008A117F2A3B304C06031D2B292C29512962
:1002580002304902031C3129322951290130C902CF
:100268004908AF002F07333E840083130008F200CB
:10027800840A00088403F30045300A168A11AD2663
:100288000A128A11831203134A08A00045300A1281
:100298008A157C220A128A117F2A37304C060319E4
:1002A800562957295D292F304C06031D5C295D29E5
:1002B8006F296D03031D612962296F291215023008
:1002C800ED000A168A1104260A128A110A308312CE
:1002D8000313CB007F2A37304C06031D7429752978
:1002E800AE2906304402031C7A297B29AE29053041
:1002F8006D06031D802981298D290A168A11A625D4
:100308000A128A11033083120313ED000C30CB005C
:100318007F2A03306D06031D922993299D290A1609
:100328008A11A6250A128A1183120313ED01ED0A18
:100338007F2A08306D06031DA229A3297F2A0A12E5
:100348008A15DD210A128A110A168A11A6250A12AF
:100358008A1198292F304C06031DB329B429612A24
:1003680003306D06031DB929BA29612A06304402F3
:10037800031CBF29C029612A482A0A168A11A62502
:100388000A128A11053083120313ED000D30CB00D9
:100398006630F6008430F7008030F8000A168A11BB
:1003A800A2270A128A117F2A0A168A11A6250A127A
:1003B8008A11093083120313ED003330F6008430BC
:1003C800F7008030F8000A168A11A2270A128A114B
:1003D8004430F6008430F700C030F8000A168A115D
:1003E800A2270A128A117F2A0630ED000A168A11FE
:1003F800A6250A128A112230F6008430F7008030D0
:10040800F8000A168A11A2270A128A1127308312C5
:100418000313B1000D30B0002530AF00AF0B122A26
:10042800B00B122AB10B122A192A7F2A0730ED00C5
:100438000A168A11A6250A128A115530F600843048
:10044800F7008030F8000A168A11A2270A128A11CA
:100458000E3083120313CB007F2A0830ED000A16F2
:100468008A11A6250A128A11B630F6008430F700E0
:100478008030F8000A168A11A2270A128A110F3052
:1004880083120313CB007F2A5D08AF00B001300848
:10049800003A0319502A7F2A2F08003A0319C12964
:1004A800013A0319D829033A0319F829013A03191B
:1004B8001A2A073A0319312A7F2A2F304C060319C2
:1004C800662A672A6D2A37304C06031D6C2A6D2A66
:1004D8007F2A09306D06031D722A732A7F2A2F305E
:1004E8004C06031D782A792A86290A168A11762746
:1004F8000A128A11862983120313C401E82A4A08BA
:10050800A20045300A128A15D8220A128A118628B2
:100518000330ED0012110C30CB008628ED01ED0AF6
:10052800121186284C08A2004B300A128A116D2538
:100538000A128A1183120313AF00B0013008003A7F
:100548000319A72A86282F08003A0319922A113A74
:1005580003198C2A86284B30F9004C080A128A1194
:10056800D8260A128A1186284B30A0000030A10034
:100578004C080A128A110A230A128A1186280A12BA
:100588008A1192230A128A110A168A11A6250A12BA
:100598008A11033083120313ED000C30CB00862838
:1005A8004B30A2000030A3004C080A128A15A3267B
:1005B8000A128A1186284B30A2004C080A128A15A2
:1005C80052250A128A1186286D08AF00B00130083A
:1005D800003A0319F02A86282F08013A0319832ABA
:1005E800033A0319962A013A0319AF2A063A03195E
:1005F800B82A033A0319C32A013A0319D42A0F3A2D
:100608000319DF2A86280A128A110C28F900831296
:100618000313200884008317211C83130D30000660
:10062800031D172B182B232B3F30F90020088400BB
:100638008317211C83130B308000D001D1012F3088
:100648007906031D282B292B502B7B08803AFF00A5
:1006580080307F02031D322B01307A02031C352BB8
:10066800362B502B7B08F3007A08F2008312031311
:100678005008013EF40051080318013E003EF50001
:100688000A128A11A7270A128A1173088312031300
:10069800D1007208D0007E2B7A087B04031D552BED
:1006A800562B7E2B0A168A11A6250A128A11E130CA
:1006B800F6008430F7008030F8000A168A11A22765
:1006C8000A128A114D3083120313A4001930A300B3
:1006D8004F30A200A20B6E2BA30B6E2BA40B6E2B1C
:1006E8000A168A11A6250A128A11033083120313E7
:1006F800ED00912B8312031350080A128A15D32494
:100708000A128A11A030F6000030F700C030F80055
:100718000A168A11A2270A128A1108007A087B048D
:10072800031D972B982BC72B0A168A11A6250A1288
:100738008A110730F6008530F7008030F8000A1675
:100748008A11A2270A128A113130F6008530F70083
:10075800C030F8000A168A11A2270A128A1133300B
:1007680083120313A200BB30A100DF30A000A00B4E
:10077800BB2BA10BBB2BA20BBB2B0A168A11A625E0
:100788000A128A11FC2B83120313A301A401EE2B76
:100798008312031323080A128A15D3240A128A1112
:1007A800A030F3000030F4000A168A11D0260A128D
:1007B8008A115530F3008530F4000A168A11D026C4
:1007C8000A128A11013083120313A3070318A40A1B
:1007D8000030A4072408803AA0007B08803A200251
:1007E800031DF82B7A082302031CFB2BFC2BCC2BB4
:0207F8000800F7
:1008000045344E345434453452342034543448340E
:1008100045342034503441345334533420343A3442
:100820000034543449344D34453420342034203499
:10083000203420342034453456342034203453348A
:100840005034003444344F3457344E344C344F34E5
:100850004134443449344E3447342E342E342E340B
:100860002E342E340034503452344534563420342F
:100870004D3445344E34553420342D343E342034F8
:10088000533457343434003443344C3445344134D5
:10089000523420344C344F34473420342D343E34D9
:1008A0002034533457343534003445344E345434C2
:1008B0004534523420344E34453457342034503487
:1008C00041345334533420343A34003453344C34A8
:1008D00020342034543449344D34453420342034C9
:1008E0002034453456342034533450340034523498
:1008F00045342D3445344E34543445345234203448
:10090000503441345334533420343A340034503466
:1009100041345334533457344F34523444342034F4
:100920004334483441344E3447344534003457342A
:10093000413449345434203446344F345234203412
:100940002034203420345334453443340034593473
:100950004F345534203441345234453420344C34EF
:100960004F3443344B3445344434003445344E34EE
:1009700054344534523420345434483445342034CB
:10098000543449344D34453400344E344F345434A7
:1009900020344D34413454344334483445344434A1
:1009A0002E342E34003441345434543445344D34D0
:1009B00050345434533420344C3445344634543455
:1009C00000344E344F3420344C344F344734533495
:1009D0002E342E342E342E342E34003464346F34BE
:1009E00077346E346C346F346134643420346C3456
:1009F0006F34673400346334683461346E34673480
:100A000065342034703473347734643400344E34B5
:100A10004F3420344C344F3447345334203454341E
:100A20004F340034573452344F344E34473420342A
:100A300050344134533453340034533455344334F4
:100A40004334453453345334213421340034633433
:100A50006C3465346134723420346C346F346734F0
:100A6000003444344F3457344E344C344F344134D2
:100A70004434003473346534743420347434693449
:100A80006D34653400347634693465347734203419
:100A90006C346F34673400343034303430343034B4
:100AA00000342D343E3420340034203420340034DB
:100AB0004334203400345234203400344734313449
:100AC000003447343234003447343334003447344C
:100AD0003434003447343534003483120313A8000F
:100AE000280884000A3083130006031D782D792D11
:100AF000862DE701E801E901EA01DA01FF30A200F1
:100B0000280884000B3080000530DB0037302206D7
:100B1000031D8B2D8C2DA92D04305A020318912D05
:100B2000922DA92D0530DB005A08673E8400303035
:100B300080005A08C63EA0002A300A168A11EF2506
:100B40000A128A110130FF007F0883120313DA07AB
:100B5000C62D2F302206031DAE2DAF2DC62D04301D
:100B60005A020318B42DB52DC62D0530DB005A08E6
:100B7000673E8400313080005A08C63EA0002A300B
:100B80000A168A11EF250A128A11A22D5B08031D8D
:100B9000CA2DCB2DDE2D0A168A117F250A128A1145
:100BA0000A168A11A6250A128A118312031328082D
:100BB00084000A30831380000030D72E04305A0698
:100BC000031DE32DE42DD72EA601A70183120313E5
:100BD0002608CD3E840026080A168A114B270A12E1
:100BE0008A1183138000013083120313A6070318B0
:100BF000A70A0030A7072708803AFF0080307F024D
:100C0000031D042E04302602031C072E082EE62D99
:100C1000CD30F2000430F3000030F40067300A12E7
:100C20008A152C220A128A1172087304031D192EC8
:100C30001A2E262E0A168A117F250A128A110A16E2
:100C40008A11A6250A128A111130D72E013083127B
:100C50000313EB026B08031D2E2E2F2E972E0A1660
:100C60008A11A6250A128A110A168A117F250A12EC
:100C70008A11A730F6008430F7008030F8000A1699
:100C80008A11A2270A128A119730F6008430F700E1
:100C9000C030F8000A168A11A2270A128A113C30C5
:100CA00083120313DC00882EC930A0000A30F20042
:100CB0000030F3005C08A300A4012308F40024081A
:100CC000F5000A128A159D230A128A117208303E15
:100CD0000A168A11EF250A128A11CA3083120313E9
:100CE000A0000A30F2000030F3005C08A300A40169
:100CF0002308F4002408F5000A128A11A7270A1213
:100D00008A117208303E0A168A11EF250A128A11DA
:100D1000831203135C08031D8E2E8F2E542E280879
:100D200084000A30831380000330EB00D22E0A16B1
:100D30008A11A6250A128A111230F6008530F700B2
:100D40008030F8000A168A11A2270A128A11C030D0
:100D500083120313A0006B08303E0A168A11EF2598
:100D60000A128A11D330F6008430F700C230F8003E
:100D70000A168A11A2270A128A114D308312031310
:100D8000A5001930A4004F30A300A30BC52EA40B5F
:100D9000C52EA50BC52E83120313280884000A3024
:100DA000831380000A168A1104260A128A11080089
:100DB00083120313AE0024308400DF30A000040847
:100DC000A1000A30A2002008840083130008A300B9
:100DD000A00A2108840023088000A10AA20BE32EA8
:100DE000790884000C300006031DF72EF82E052F1D
:100DF000FF30AE00DD010A168A11A6250A128A11FB
:100E0000790884000B30831380002F308312031382
:100E10002E06031D0C2F0D2F1D2F04305D0203180D
:100E2000122F132F1D2F0130FF007F08DD070A1638
:100E30008A11A6250A128A112B2F37302E06031D80
:100E4000222F232F2B2F5D080319272F282F2B2F1D
:100E50000130DD02172F0430831203135D020318E3
:100E6000322F332F6A2F5130F6008530F700803053
:100E7000F8000A168A11A2270A128A118312031394
:100E80005D08A0002007243E840083130008F600BC
:100E9000840A00088403F7008330F8000A168A11D8
:100EA000A2270A128A11831203135D08A0002007EB
:100EB000023E243E840083130008F600840A0008E2
:100EC0008403F700C330F8000A168A11A2270A1219
:100ED0008A11A62F04305D06031D6F2F702FA62FD9
:100EE0005130F6008530F700C030F8000A168A113C
:100EF000A2270A128A11831203135D08A00020079B
:100F0000FE3E243E840083130008F600840A000895
:100F10008403F7008330F8000A168A11A2270A1208
:100F20008A11831203135D08A0002007243E840069
:100F300083130008F600840A00088403F700C33016
:100F4000F8000A168A11A2270A128A110800F7016E
:100F5000F51FAB2FAC2FB32FF409F509F40A0319D1
:100F6000F50AF701F70AF31FB62FB72FBC2FF209C6
:100F7000F309F20A0319F30A720873040319C12F63
:100F8000C22FF12FF601F60AD02F01300310F20D17
:100F9000F30DFF3E031DC62F0130FF007F08F6074B
:100FA000F31FD32FD42FC52F73087502031DDA2F1B
:100FB00072087402031CDD2FDE2FE42F7208F40286
:100FC0007308031CF503F50201300310F30CF20C57
:100FD000FF3E031DE52F0130F602031DF02FF12F18
:100FE000D42F77080319F52FF62FFB2FF409F509F5
:100FF000F40A0319F50A7508F3007408F2000800F2
:10100000F400F301741C052806280A287208FF0062
:101010007F08F3070310F20D0310F40C7408031D8E
:10102000122813280228730808008312031394154A
:101030002608AA002708AB002808AC002908AD0044
:1010400002300310AA0DAB0DAC0DAD0DFF3E031D1C
:1010500021282D08F5002C08F4002B08F3002A089D
:10106000F2000130F9003130F8002D30F700003087
:10107000F6000A128A156B240A128A157208FF3EBE
:10108000831603139300831203139416080083122C
:1010900003138C1C4C284D2875281108083E91001C
:1010A0000130D6070318D70A0030D707E2305606BA
:1010B000043003195706031D5E285F287428D601E3
:1010C000D7015C0803196528662868280130DC020E
:1010D0005C08031D6C286D2874285B0803197128AF
:1010E000722874280130DB028C1071088A00700E9F
:1010F0008300FE0E7E0E0900831203139817181644
:10110000831603131815831203132608AA00270851
:10111000AB002808AC002908AD0004300310AA0D6C
:10112000AB0DAC0DAD0DFF3E031D8E282D08F50057
:101130002C08F4002B08F3002A08F2000130F90013
:101140003130F8002D30F7000030F6000A128A1511
:101150006B240A128A157208FF3E83160313990046
:101160000800F5007218B528B92883120313091571
:10117000BC288312031309117508F03988008914FB
:10118000A630F300F30BC22800008312031389106A
:1011900075080F39F30003300310F30DFF3E031DF4
:1011A000CC280310730D88008914A630F300F30BCC
:1011B000D72800008312031389101B30F4009E30DF
:1011C000F300F30BE128F40BE128000008000A16F5
:1011D0008A112C250A128A150A168A1132250A123A
:1011E0008A150A168A1174250A128A15003083128C
:1011F0000313A9000130A8008630A700A030A60084
:101200000A128A1515200A128A150A168A11C9258A
:101210000A128A150A168A1199250A128A150030AF
:1012200083120313A9000030A8002530A7008030E6
:10123000A6000A128A157C200A128A158B170B1732
:101240000800720873040319262927295629F60174
:10125000F60A352901300310F20DF30DFF3E031D90
:101260002B290130FF007F08F607F31F38293929A1
:101270002A2973087502031D3F2972087402031C92
:101280004229432949297208F4027308031CF50313
:10129000F50201300310F30CF20CFF3E031D4A2946
:1012A0000130F602031D5529562939297508F30026
:1012B0007408F20008000530F900013083120313AE
:1012C000EE070318EF0A0030EF070A306E066F04CE
:1012D000031D6B296C296E29EE01EF010A30F20023
:1012E0006E080A128A1500200A128A15FF007F086C
:1012F000F9077B08803AFF0080307F02031D8229B6
:101300000A307A020318852986298C290130FA07C8
:101310000318FB0A0030FB07B130F5000030F6007F
:1013200079080A168A11D1270A128A150800831231
:101330000313A001A101760877040319A029A129AC
:10134000D829A201A20AAF2901300310F60DF70D2A
:10135000FF3E031DA5290130FF007F08A207F71FEC
:10136000B229B329A42901300310A00DA10DFF3E1D
:10137000031DB42977087902031DC0297608780275
:10138000031CC329C429CB297608F8027708031C5B
:10139000F903F902201401300310F70CF60CFF3E9C
:1013A000031DCC290130A202031DD729D829B32956
:1013B0002108F7002008F6000800F7018312031344
:1013C0005E08F50004300310F50DFF3E031DE32910
:1013D00077087504F6005F08D03E7604F7007708BA
:1013E000F30002300A168A116E260A128A15F701D6
:1013F000831203136108F50004300310F50DFF3E5E
:10140000031DFD2977087504F6006208D03E7604B6
:10141000F7007708F30001300A168A116E260A12C7
:101420008A15F701831203136408F50004300310D2
:10143000F50DFF3E031D172A77087504F6006508B1
:10144000D03E7604F7007708F30000300A168A11C0
:101450006E260A128A150800F7000130F3020030E8
:10146000031CF403F402730A031D3A2A740A031DD1
:101470003A2A3B2A4C2AF201F3017B2A0130FF0071
:101480007F08F7070130FF007F08F2070130F30201
:101490000030031CF403F40277088400831300086F
:1014A0000319532A542A6D2A72088400000803196C
:1014B0005A2A5B2A6D2A730874040319602A612A68
:1014C0006D2A720884000008F5007708840000087F
:1014D000750603196C2A6D2A3E2A720884000008DA
:1014E000F500770884000008F60075087602F2001F
:1014F000F301031CF303080083120313A3000A1271
:101500008A1504240A128A15831603133C08B100B5
:101510003D08B2003F08B3004008B4004208B500DF
:101520004308B600831203132308840083130008C2
:1015300083160313B70083120313230A84000008E1
:1015400083160313B8000A30F2000030F300831250
:1015500003132008A100A2012108F4002208F500CD
:101560000A128A159D230A128A157208303E8316C4
:101570000313B9000A30F2000030F30083120313A2
:101580002008A100A2012108F4002208F5000A1297
:101590008A11A7270A128A157208303E8316031390
:1015A000BA00BB010A128A155B210A128A150800CB
:1015B00083120313A5001130F6008430F700803049
:1015C000F8000A168A11A2270A128A150A128A1529
:1015D00004240A128A15BC30F6000030F700C0302F
:1015E000F8000A168A11A2270A128A158312031319
:1015F0002508F6000030F700CA30F8000A168A11F4
:10160000A2270A128A15CE3083120313A0000A30D3
:10161000F2000030F3002208A300A4012308F40024
:101620002408F5000A128A159D230A128A157208E9
:10163000303E0A168A11EF250A128A15CF3083121E
:101640000313A0000A30F2000030F3002208A300C8
:10165000A4012308F4002408F5000A128A11A72720
:101660000A128A157208303E0A168A11EF250A12EC
:101670008A150800C330F700CD30F600F60B3E2B7C
:10168000F70B3E2BF20133300A128A15B1200A12F1
:101690008A151B30F7009E30F600F60B4D2BF70B2A
:1016A0004D2B0000F20133300A128A15B1200A12C4
:1016B0008A15A630F600F60B5B2B0000F2013330E2
:1016C0000A128A15B1200A128A15662B672B0000B0
:1016D000F20102300A128A15B1200A128A15A630C8
:1016E000F600F60B712B0000F20128300A128A1561
:1016F000B1200A128A15A630F600F60B7D2B0000E9
:10170000F20101300A128A15B1200A128A1504303A
:10171000F7003D30F600F60B8B2BF70B8B2B902B45
:10172000F2010C300A128A15B1200A128A15A6306D
:10173000F600F60B992B00000800F701F31FA12B10
:10174000A22BA92BF209F309F20A0319F30AF701F4
:10175000F70AF51FAC2BAD2BB62BF409F509F40AEB
:101760000319F50A0130FF007F08F706F801F901B7
:10177000720873040319BD2BBE2BF52BF601F60A74
:10178000CC2B01300310F20DF30DFF3E031DC22BD5
:101790000130FF007F08F607F31FCF2BD02BC12BA2
:1017A00001300310F80DF90DFF3E031DD12B730816
:1017B0007502031DDD2B72087402031CE02BE12B64
:1017C000E82B7208F4027308031CF503F502781481
:1017D00001300310F30CF20CFF3E031DE92B013026
:1017E000F602031DF42BF52BD02B77080319F92BE8
:1017F000FA2BFF2BF809F909F80A0319F90A7908F5
:10180000F3007808F200080002300A168A11202737
:101810000A128A1583120313CD0001300A168A11A9
:1018200020270A128A1583120313CE0000300A16ED
:101830008A1120270A128A1583120313CF004D083C
:10184000F60004300310F60CFF3E031D222C760830
:101850000339303E83160313BC00831203134D0873
:101860000F39303E83160313BD003A30BE00831299
:1018700003134E08F60004300310F60CFF3E031D60
:101880003C2C76080739303E83160313BF008312C1
:1018900003134E080F39303E83160313C0003A304D
:1018A000C100831203134F08F60004300310F60C36
:1018B000FF3E031D562C76080739303E831603136E
:1018C000C200831203134F080F39303E83160313EF
:1018D000C300C4010800003083120313A4000030C9
:1018E000A3000030A2000030A10075087404730446
:1018F000720403197C2C7D2CCA2CA501A50A8D2C01
:101900000130A0000310F20DF30DF40DF50DA00B46
:10191000822C0130FF007F08A507F51F902C912C29
:10192000802C0130A0000310A10DA20DA30DA40D69
:10193000A00B932C75087902031DA82C740878025B
:10194000031DA82C73087702031DA82C72087602C9
:10195000031CAB2CAC2CBB2C7208F6027308031CC6
:10196000730FF7027408031C740FF8027508031C48
:10197000750FF902211401300310F50CF40CF30C6F
:10198000F20CFF3E031DBC2C0130A502031DC92C27
:10199000CA2C912C2408F5002308F4002208F30037
:1019A0002108F2000800F6000A30F20076080A1258
:1019B0008A1500200A128A15053EF7007608613E56
:1019C00083160313A0002E30A10077080A168A118F
:1019D0004B270A128A1583160313A2007708013ECB
:1019E0000A168A114B270A128A1583160313A300BD
:1019F0003A30A4007708023E0A168A114B270A12D1
:101A00008A1583160313A5007708033E0A168A1168
:101A10004B270A128A1583160313A6003A30A70033
:101A20007708043E0A168A114B270A128A15831674
:101A30000313A8007708053E0A168A114B270A12DD
:101A40008A1583160313A9002030AA007708063EE2
:101A50000A168A114B270A128A1583160313AB0044
:101A60007708073E0A168A114B270A128A15831631
:101A70000313AC002030AD007708083E0A168A1127
:101A80004B270A128A1583160313AE007708093E06
:101A90000A168A114B270A128A1583160313AF0000
:101AA000B001080083120313A500220884000F3040
:101AB00083130006031D5D2D5E2D8B2DA601A7014E
:101AC0008312031326085E3E8400303083138000A7
:101AD0000130A6070318A70A0030A7072708803A95
:101AE000FF0080307F02031D772D08302602031C83
:101AF0007A2D7B2D602D83120313D401D5013F3045
:101B0000A500220884000B30831380003A30E000E7
:101B10003A30E300E60137302506031D902D912D64
:101B2000BB2D5508803AFF0080307F02031D9A2D9F
:101B30000730540203189D2D9E2DBB2D01308312BA
:101B40000313D4070318D50A0030D5070230540612
:101B500055040319AC2DAD2DB42D05305406550494
:101B6000031DB32DB42D6D2E0130D4070318D50AF3
:101B70000030D5076D2E2F30831203132506031D69
:101B8000C22DC32D6D2E542E0330F2000030F30011
:101B90005E08D13EF400FF3003180030F5000A1251
:101BA0008A1521210A128A157208303E8312031306
:101BB000DE006D2E32305E06031DDF2DE02DE62D9A
:101BC0005F08D13E0339303EDF006D2E0A30F2004F
:101BD0000030F3005F08D13EF400FF3003180030FE
:101BE000F5000A128A1521210A128A157208303E60
:101BF00083120313DF006D2E0630F2000030F30075
:101C00006108D13EF400FF3003180030F5000A12DD
:101C10008A1521210A128A157208303E8312031395
:101C2000E1006D2E0A30F2000030F3006208D13E70
:101C3000F400FF3003180030F5000A128A15212144
:101C40000A128A157208303E83120313E2006D2EC9
:101C50000630F2000030F3006408D13EF400FF309B
:101C600003180030F5000A128A1521210A128A157C
:101C70007208303E83120313E4006D2E0A30F20026
:101C80000030F3006508D13EF400FF300318003047
:101C9000F5000A128A1521210A128A157208303EAF
:101CA00083120313E5006D2E5508003A0319592ECF
:101CB0006D2E5408003A0319C42D013A0319DA2D88
:101CC000023A0319FC2D073A0319122E023A03199E
:101CD000282E013A03193E2E6D2E32305E06031D6A
:101CE000722E732E782E5F08D03E0339303EDF000F
:101CF0005E30F6000030F700C030F8000A168A1196
:101D0000A2270A128A1583120313520853040319D7
:101D10008A2E8C2E01308D2E0030A300A4012308C2
:101D2000D2002408D300520853040319982E992E88
:101D3000A22E5408C03EA000FF300A168A11EF25DB
:101D40000A128A15080083120313A70022088400D0
:101D50008317231C83130E300006031DB02EB12EF3
:101D6000E52EA801A901831203132808C93E8400A7
:101D7000831380012808C53E840080010130A80734
:101D80000318A90A0030A9072908803AFF0080300B
:101D90007F02031DCD2E04302802031CD02ED12E2D
:101DA000B32E3F3083120313A700D801D80AD901FC
:101DB000220884008317231C83130B308000C63055
:101DC0000A168A111B260A128A153730831203134A
:101DD0002706031DEC2EED2E112F04305902031897
:101DE000F22EF32EFA2E5908C93E840030308313A8
:101DF0008000012F59080339C53E84003030831319
:101E0000800059080339C63EA0002A300A168A11FC
:101E1000EF250A128A150130FF007F088312031391
:101E2000D9072F302706031D162F172F3B2F0430FD
:101E3000590203181C2F1D2F242F5908C93E840056
:101E40003130831380002B2F59080339C53E84009D
:101E500031308313800059080339C63EA0002A3070
:101E60000A168A11EF250A128A150130FF007F0831
:101E700083120313D90704305906031D402F412F45
:101E8000692F58080319452F462F692F5808031941
:101E90004A2F4C2F01304D2F0030D8000A168A11DE
:101EA000A6250A128A157730F6008430F7008030B4
:101EB000F8000A168A11A2270A128A150A168A1130
:101EC0007F250A128A15C6300A168A111B260A12A5
:101ED0008A150830831203135906031D702F712FC2
:101EE000FF2F0A168A11A6250A128A150A168A11C8
:101EF0007F250A128A15C530F2000430F300003045
:101F0000F400C9300A128A152C220A128A157208A6
:101F10007304031D8C2F8D2FDD2F83120313AA0151
:101F2000AB01831203132A08C93E840083130008FF
:101F3000F3002A080A168A1150260A128A1501305F
:101F400083120313AA070318AB0A0030AB072B0850
:101F5000803AFF0080307F02031DB02F04302A0238
:101F6000031CB32FB42F912F8730F6008430F70075
:101F70008030F8000A168A11A2270A128A151D302D
:101F8000F6008530F700C030F8000A168A11A22743
:101F90000A128A15333083120313A600BB30A50042
:101FA000DF30A400A40BD22FA50BD22FA60BD22F6B
:101FB00083120313ED01ED0AFA2FC530F6008430C9
:101FC000F7008030F8000A168A11A2270A128A1533
:101FD000333083120313A600BB30A500DF30A4000A
:101FE000A40BF02FA50BF02FA60BF02F03308312BC
:101FF0000313ED000A168A11A6250A128A15080095
:10200000FF1B0A2883137F1883170008840A03190B
:10201000FF0A08007F087F398A000408840A031930
:04202000FF0A820031
:102A4E00033401340134FF34FF34831603130608B4
:102A5E003F3886000800831603139F178312031353
:102A6E001F14080064008001840A04060319003450
:102A7E0004063A2D0A168A118C250A168A11831617
:102A8E000313111408000A168A118C250A168A11CE
:102A9E008316031311150800F2000A168A118C25ED
:102AAE000A168A11720883120313930008000A167D
:102ABE008A114A250A168A110A168A1141250A1602
:102ACE008A110800F20072088312031399000C1E7B
:102ADE00712D722D6E2D0C120800831603138801B2
:102AEE00091189100A128A153A230A168A1108004A
:102AFE00F2010C300A128A15B1200A168A11A6307C
:102B0E00F600F60B882D0000080083160313141927
:102B1E00912D922D8C2D11081F39031D972D982D57
:102B2E008C2D080083120313121492140630831690
:102B3E00031392008C148312031312150800F20172
:102B4E0001300A128A15B1200A168A110430F700D4
:102B5E003D30F600F60BB12DF70BB12DB62D08005A
:102B6E00831203131F151F19BD2DBE2DBA2D1E085E
:102B7E00F500831603131E08F4007508F30074089D
:102B8E00F200080000300A168A1120270A168A1150
:102B9E00F60076087F39F6007608F30000300A1644
:102BAE008A116E260A168A1108007E088A007F088E
:102BBE0082000A168A11DC250A168A118000840A00
:102BCE0004087D0603190034FF0A0319FE0AE02DDE
:102BDE0083120313A100F20120080A128A15B120F4
:102BEE000A168A11F201F20A8312031321080A123D
:102BFE008A15B1200A168A1108000A168A11A6250E
:102C0E000A168A110030F6008430F7008030F80082
:102C1E000A168A11A2270A168A11C6300A168A11B6
:102C2E001B260A168A110800F700F20177080A120D
:102C3E008A15B1200A168A11A630F600F60B252E3B
:102C4E000000F2010F300A128A15B1200A168A11FD
:102C5E00A630F600F60B312E0000080058348534ED
:102C6E005E34853461348534643485346734853418
:102C7E006A3485345B348534433485342734853463
:102C8E00EE348434FB3484343A3485344F344E3449
:102C9E000034F4000A168A1141250A168A11A03052
:102CAE000A168A1153250A168A1174080A168A11F1
:102CBE0053250A168A1173080A168A1153250A1605
:102CCE008A110A168A114A250A168A110800F4007A
:102CDE000A168A1141250A168A11D0300A168A114F
:102CEE0053250A168A1174080A168A1153250A16D4
:102CFE008A1173080A168A1153250A168A110A16A2
:102D0E008A114A250A168A110800F2000A168A113B
:102D1E008C250A168A118316031391150A168A1129
:102D2E008C250A168A11831203131308F3007203FB
:102D3E00031DA22EA32EA72E831603139116AA2EC1
:102D4E00831603139112111673080800F700770803
:102D5E00F6007308F5007208F400F20A0319F30A7C
:102D6E00750883120313FF00740884000A168A1173
:102D7E0000200A168A11FF00760884000130F6073B
:102D8E007F08831380000008031DCE2ECF2EB02E99
:102D9E000800E52E7408FF00730884000A168A11D5
:102DAE0000200A168A110A168A1169250A168A1136
:102DBE000130F3070318F40A0030F4077408831285
:102DCE000313FF00730884000A168A1100200A16E6
:102DDE008A11003A031DF42EF52ED12E0800F300B1
:102DEE007308031DFB2EFC2E012F831203130608FE
:102DFE003F391F2F3F30831203130605F2003F3079
:102E0E00720603190B2F0C2F132F6C080319102F9A
:102E1E00112F132FEC01FC2E3F300605F2003F3030
:102E2E007206031D1B2F1C2F1E2FEC01EC0A3F30C8
:102E3E000800F4000A168A1141250A168A11D030AC
:102E4E000A168A1153250A168A1174080A168A114F
:102E5E0053250A168A110A168A115E250A168A1138
:102E6E00D1300A168A1153250A168A1100300A1615
:102E7E008A118C260A168A11F5000A168A114A251D
:102E8E000A168A1175080800F4000A168A114125DF
:102E9E000A168A11A0300A168A1153250A168A11AB
:102EAE0074080A168A1153250A168A110A168A11EF
:102EBE005E250A168A11A1300A168A1153250A16A2
:102ECE008A1100300A168A118C260A168A11F5000C
:102EDE000A168A114A250A168A1175080800F80181
:102EEE00F901FF30F3007808053E0A168A115026C4
:102EFE000A168A110130F8070318F90A0030F9078B
:102F0E007908803AFF0080307F02031D902F6430D5
:102F1E007802031C932F942F782FFA01FB01FF30B8
:102F2E0083120313EE00FF30EF000A168A11A62556
:102F3E000A168A110800F20178080A128A15B120C1
:102F4E000A168A11C02FF201F20A7708FF007608DE
:102F5E0084000A168A1100200A168A110A128A158E
:102F6E00B1200A168A110130F6070318F70A00304D
:102F7E00F707770883120313FF00760884000A16FA
:102F8E008A1100200A168A11003A031DCF2FD02F66
:102F9E00AA2F0800F700F801EC2F780875078400B7
:102FAE0076080318760AFF000A168A1100200A1600
:102FBE008A11F300780877070A168A1150260A1626
:102FCE008A110130FF007F08F80778087507840022
:102FDE0076080318760A83120313FF000A168A1165
:102FEE0000200A168A11003A031DFE2FFF2FD42F40
:022FFE000800C9
:08400000FF3FFF3FFF3FFF3FC0
:02400E00FB3F76
:00000001FF
